{
  "contractName": "Bridge",
  "abi": [
    {
      "inputs": [
        {
          "internalType": "address",
          "name": "_gateway",
          "type": "address"
        }
      ],
      "stateMutability": "nonpayable",
      "type": "constructor"
    },
    {
      "anonymous": false,
      "inputs": [
        {
          "indexed": true,
          "internalType": "address",
          "name": "makerContract",
          "type": "address"
        },
        {
          "indexed": true,
          "internalType": "address",
          "name": "takerContract",
          "type": "address"
        },
        {
          "indexed": false,
          "internalType": "address",
          "name": "requester",
          "type": "address"
        },
        {
          "indexed": false,
          "internalType": "uint256",
          "name": "amount",
          "type": "uint256"
        },
        {
          "indexed": false,
          "internalType": "uint256",
          "name": "timestamp",
          "type": "uint256"
        }
      ],
      "name": "TokensBridged",
      "type": "event"
    },
    {
      "anonymous": false,
      "inputs": [
        {
          "indexed": true,
          "internalType": "address",
          "name": "makerContract",
          "type": "address"
        },
        {
          "indexed": true,
          "internalType": "address",
          "name": "takerContract",
          "type": "address"
        },
        {
          "indexed": false,
          "internalType": "address",
          "name": "requester",
          "type": "address"
        },
        {
          "indexed": false,
          "internalType": "uint256",
          "name": "amount",
          "type": "uint256"
        },
        {
          "indexed": false,
          "internalType": "uint256",
          "name": "timestamp",
          "type": "uint256"
        }
      ],
      "name": "TokensLocked",
      "type": "event"
    },
    {
      "anonymous": false,
      "inputs": [
        {
          "indexed": true,
          "internalType": "address",
          "name": "makerContract",
          "type": "address"
        },
        {
          "indexed": true,
          "internalType": "address",
          "name": "takerContract",
          "type": "address"
        }
      ],
      "name": "TokensMapped",
      "type": "event"
    },
    {
      "anonymous": false,
      "inputs": [
        {
          "indexed": true,
          "internalType": "address",
          "name": "makerContract",
          "type": "address"
        },
        {
          "indexed": true,
          "internalType": "address",
          "name": "takerContract",
          "type": "address"
        },
        {
          "indexed": false,
          "internalType": "address",
          "name": "requester",
          "type": "address"
        },
        {
          "indexed": false,
          "internalType": "uint256",
          "name": "amount",
          "type": "uint256"
        },
        {
          "indexed": false,
          "internalType": "uint256",
          "name": "timestamp",
          "type": "uint256"
        }
      ],
      "name": "TokensReturned",
      "type": "event"
    },
    {
      "anonymous": false,
      "inputs": [
        {
          "indexed": true,
          "internalType": "address",
          "name": "makerContract",
          "type": "address"
        },
        {
          "indexed": true,
          "internalType": "address",
          "name": "takerContract",
          "type": "address"
        },
        {
          "indexed": false,
          "internalType": "address",
          "name": "requester",
          "type": "address"
        },
        {
          "indexed": false,
          "internalType": "uint256",
          "name": "amount",
          "type": "uint256"
        },
        {
          "indexed": false,
          "internalType": "uint256",
          "name": "timestamp",
          "type": "uint256"
        }
      ],
      "name": "TokensUnlocked",
      "type": "event"
    },
    {
      "inputs": [
        {
          "internalType": "address",
          "name": "_makerContract",
          "type": "address"
        },
        {
          "internalType": "address",
          "name": "_takerContract",
          "type": "address"
        },
        {
          "internalType": "address",
          "name": "_requester",
          "type": "address"
        },
        {
          "internalType": "uint256",
          "name": "_bridgedAmount",
          "type": "uint256"
        }
      ],
      "name": "lockTokens",
      "outputs": [],
      "stateMutability": "nonpayable",
      "type": "function"
    },
    {
      "inputs": [
        {
          "internalType": "address",
          "name": "_makerContract",
          "type": "address"
        },
        {
          "internalType": "address",
          "name": "_takerContract",
          "type": "address"
        },
        {
          "internalType": "address",
          "name": "_requester",
          "type": "address"
        },
        {
          "internalType": "uint256",
          "name": "_bridgedAmount",
          "type": "uint256"
        }
      ],
      "name": "unlockTokens",
      "outputs": [],
      "stateMutability": "nonpayable",
      "type": "function"
    },
    {
      "inputs": [
        {
          "internalType": "address",
          "name": "_makerContract",
          "type": "address"
        },
        {
          "internalType": "address",
          "name": "_takerContract",
          "type": "address"
        },
        {
          "internalType": "address",
          "name": "_requester",
          "type": "address"
        },
        {
          "internalType": "uint256",
          "name": "_bridgedAmount",
          "type": "uint256"
        }
      ],
      "name": "mint",
      "outputs": [],
      "stateMutability": "nonpayable",
      "type": "function"
    },
    {
      "inputs": [
        {
          "internalType": "address",
          "name": "_makerContract",
          "type": "address"
        },
        {
          "internalType": "address",
          "name": "_takerContract",
          "type": "address"
        },
        {
          "internalType": "address",
          "name": "_requester",
          "type": "address"
        },
        {
          "internalType": "uint256",
          "name": "_bridgedAmount",
          "type": "uint256"
        }
      ],
      "name": "burn",
      "outputs": [],
      "stateMutability": "nonpayable",
      "type": "function"
    },
    {
      "inputs": [
        {
          "internalType": "address",
          "name": "_makerContract",
          "type": "address"
        },
        {
          "internalType": "address",
          "name": "_takerContract",
          "type": "address"
        }
      ],
      "name": "addTokenMap",
      "outputs": [],
      "stateMutability": "nonpayable",
      "type": "function"
    }
  ],
  "bytecode": "0x60806040523480156200001157600080fd5b5060405162001255380380620012558339818101604052810190620000379190620000e9565b80600160006101000a81548173ffffffffffffffffffffffffffffffffffffffff021916908373ffffffffffffffffffffffffffffffffffffffff160217905550506200011b565b600080fd5b600073ffffffffffffffffffffffffffffffffffffffff82169050919050565b6000620000b18262000084565b9050919050565b620000c381620000a4565b8114620000cf57600080fd5b50565b600081519050620000e381620000b8565b92915050565b6000602082840312156200010257620001016200007f565b5b60006200011284828501620000d2565b91505092915050565b61112a806200012b6000396000f3fe608060405234801561001057600080fd5b50600436106100575760003560e01c806311b858e91461005c57806338d9462014610078578063772850f61461009457806381513892146100b0578063f1366862146100cc575b600080fd5b61007660048036038101906100719190610c5d565b6100e8565b005b610092600480360381019061008d9190610c5d565b610380565b005b6100ae60048036038101906100a99190610c5d565b6105c0565b005b6100ca60048036038101906100c59190610c5d565b610801565b005b6100e660048036038101906100e19190610cc4565b610973565b005b600160009054906101000a900473ffffffffffffffffffffffffffffffffffffffff1673ffffffffffffffffffffffffffffffffffffffff163373ffffffffffffffffffffffffffffffffffffffff1614610178576040517f08c379a000000000000000000000000000000000000000000000000000000000815260040161016f90610d87565b60405180910390fd5b600181116101bb576040517f08c379a00000000000000000000000000000000000000000000000000000000081526004016101b290610df3565b60405180910390fd5b600115156000808673ffffffffffffffffffffffffffffffffffffffff1673ffffffffffffffffffffffffffffffffffffffff16815260200190815260200160002060008573ffffffffffffffffffffffffffffffffffffffff1673ffffffffffffffffffffffffffffffffffffffff16815260200190815260200160002060009054906101000a900460ff1615151461028a576040517f08c379a000000000000000000000000000000000000000000000000000000000815260040161028190610e5f565b60405180910390fd5b60008490508073ffffffffffffffffffffffffffffffffffffffff166323b872dd8430856040518463ffffffff1660e01b81526004016102cc93929190610e9d565b6020604051808303816000875af11580156102eb573d6000803e3d6000fd5b505050506040513d601f19601f8201168201806040525081019061030f9190610f0c565b508373ffffffffffffffffffffffffffffffffffffffff168573ffffffffffffffffffffffffffffffffffffffff167f0f7ae9891fe5b877ffdd33621970db3e5d162185914f1db43da2474c9fbc294885854260405161037193929190610f39565b60405180910390a35050505050565b600160009054906101000a900473ffffffffffffffffffffffffffffffffffffffff1673ffffffffffffffffffffffffffffffffffffffff163373ffffffffffffffffffffffffffffffffffffffff1614610410576040517f08c379a000000000000000000000000000000000000000000000000000000000815260040161040790610d87565b60405180910390fd5b6000849050818173ffffffffffffffffffffffffffffffffffffffff166370a08231306040518263ffffffff1660e01b815260040161044f9190610f70565b602060405180830381865afa15801561046c573d6000803e3d6000fd5b505050506040513d601f19601f820116820180604052508101906104909190610fa0565b10156104d1576040517f08c379a00000000000000000000000000000000000000000000000000000000081526004016104c89061103f565b60405180910390fd5b8073ffffffffffffffffffffffffffffffffffffffff1663a9059cbb84846040518363ffffffff1660e01b815260040161050c92919061105f565b6020604051808303816000875af115801561052b573d6000803e3d6000fd5b505050506040513d601f19601f8201168201806040525081019061054f9190610f0c565b508373ffffffffffffffffffffffffffffffffffffffff168573ffffffffffffffffffffffffffffffffffffffff167f5ae1ef79958b0edc5462cbca077b28117d46e30cecacf4a78d4df46f0f1256198585426040516105b193929190610f39565b60405180910390a35050505050565b600160009054906101000a900473ffffffffffffffffffffffffffffffffffffffff1673ffffffffffffffffffffffffffffffffffffffff163373ffffffffffffffffffffffffffffffffffffffff1614610650576040517f08c379a000000000000000000000000000000000000000000000000000000000815260040161064790610d87565b60405180910390fd5b600115156000808673ffffffffffffffffffffffffffffffffffffffff1673ffffffffffffffffffffffffffffffffffffffff16815260200190815260200160002060008573ffffffffffffffffffffffffffffffffffffffff1673ffffffffffffffffffffffffffffffffffffffff16815260200190815260200160002060009054906101000a900460ff1615151461071f576040517f08c379a000000000000000000000000000000000000000000000000000000000815260040161071690610e5f565b60405180910390fd5b60008490508073ffffffffffffffffffffffffffffffffffffffff166379cc679084846040518363ffffffff1660e01b815260040161075f92919061105f565b600060405180830381600087803b15801561077957600080fd5b505af115801561078d573d6000803e3d6000fd5b505050508373ffffffffffffffffffffffffffffffffffffffff168573ffffffffffffffffffffffffffffffffffffffff167f9807f4203c192b2f894581546a51df329572d6f2996dd439232a05875c985b3a8585426040516107f293929190610f39565b60405180910390a35050505050565b600160009054906101000a900473ffffffffffffffffffffffffffffffffffffffff1673ffffffffffffffffffffffffffffffffffffffff163373ffffffffffffffffffffffffffffffffffffffff1614610891576040517f08c379a000000000000000000000000000000000000000000000000000000000815260040161088890610d87565b60405180910390fd5b60008490508073ffffffffffffffffffffffffffffffffffffffff166340c10f1984846040518363ffffffff1660e01b81526004016108d192919061105f565b600060405180830381600087803b1580156108eb57600080fd5b505af11580156108ff573d6000803e3d6000fd5b505050508373ffffffffffffffffffffffffffffffffffffffff168573ffffffffffffffffffffffffffffffffffffffff167f13339f3cad1ec1204e6b76c40ed1cc3ef42c71caf4fd353d3a6b6105fa741cd285854260405161096493929190610f39565b60405180910390a35050505050565b600160009054906101000a900473ffffffffffffffffffffffffffffffffffffffff1673ffffffffffffffffffffffffffffffffffffffff163373ffffffffffffffffffffffffffffffffffffffff1614610a03576040517f08c379a00000000000000000000000000000000000000000000000000000000081526004016109fa90610d87565b60405180910390fd5b600015156000808473ffffffffffffffffffffffffffffffffffffffff1673ffffffffffffffffffffffffffffffffffffffff16815260200190815260200160002060008373ffffffffffffffffffffffffffffffffffffffff1673ffffffffffffffffffffffffffffffffffffffff16815260200190815260200160002060009054906101000a900460ff16151514610ad2576040517f08c379a0000000000000000000000000000000000000000000000000000000008152600401610ac9906110d4565b60405180910390fd5b60016000808473ffffffffffffffffffffffffffffffffffffffff1673ffffffffffffffffffffffffffffffffffffffff16815260200190815260200160002060008373ffffffffffffffffffffffffffffffffffffffff1673ffffffffffffffffffffffffffffffffffffffff16815260200190815260200160002060006101000a81548160ff0219169083151502179055508073ffffffffffffffffffffffffffffffffffffffff168273ffffffffffffffffffffffffffffffffffffffff167f0fa701a80e40fd2abded092558764578513395e8848ee4800323e953d7e1890b60405160405180910390a35050565b600080fd5b600073ffffffffffffffffffffffffffffffffffffffff82169050919050565b6000610bf482610bc9565b9050919050565b610c0481610be9565b8114610c0f57600080fd5b50565b600081359050610c2181610bfb565b92915050565b6000819050919050565b610c3a81610c27565b8114610c4557600080fd5b50565b600081359050610c5781610c31565b92915050565b60008060008060808587031215610c7757610c76610bc4565b5b6000610c8587828801610c12565b9450506020610c9687828801610c12565b9350506040610ca787828801610c12565b9250506060610cb887828801610c48565b91505092959194509250565b60008060408385031215610cdb57610cda610bc4565b5b6000610ce985828601610c12565b9250506020610cfa85828601610c12565b9150509250929050565b600082825260208201905092915050565b7f6f6e6c7920676174657761792063616e2065786563757465207468697320667560008201527f6e6374696f6e0000000000000000000000000000000000000000000000000000602082015250565b6000610d71602683610d04565b9150610d7c82610d15565b604082019050919050565b60006020820190508181036000830152610da081610d64565b9050919050565b7f706c656173652073656c656374206d6f7265207468616e203120414d54000000600082015250565b6000610ddd601d83610d04565b9150610de882610da7565b602082019050919050565b60006020820190508181036000830152610e0c81610dd0565b9050919050565b7f746f6b656e732061726520206e6f74206d617070656400000000000000000000600082015250565b6000610e49601683610d04565b9150610e5482610e13565b602082019050919050565b60006020820190508181036000830152610e7881610e3c565b9050919050565b610e8881610be9565b82525050565b610e9781610c27565b82525050565b6000606082019050610eb26000830186610e7f565b610ebf6020830185610e7f565b610ecc6040830184610e8e565b949350505050565b60008115159050919050565b610ee981610ed4565b8114610ef457600080fd5b50565b600081519050610f0681610ee0565b92915050565b600060208284031215610f2257610f21610bc4565b5b6000610f3084828501610ef7565b91505092915050565b6000606082019050610f4e6000830186610e7f565b610f5b6020830185610e8e565b610f686040830184610e8e565b949350505050565b6000602082019050610f856000830184610e7f565b92915050565b600081519050610f9a81610c31565b92915050565b600060208284031215610fb657610fb5610bc4565b5b6000610fc484828501610f8b565b91505092915050565b7f756e61626c6520746f207472616e736665723b2064756520746f20696e73756660008201527f6669656e742066756e6473000000000000000000000000000000000000000000602082015250565b6000611029602b83610d04565b915061103482610fcd565b604082019050919050565b600060208201905081810360008301526110588161101c565b9050919050565b60006040820190506110746000830185610e7f565b6110816020830184610e8e565b9392505050565b7f416c726561647920746f6b656e7320617265206d617070656400000000000000600082015250565b60006110be601983610d04565b91506110c982611088565b602082019050919050565b600060208201905081810360008301526110ed816110b1565b905091905056fea26469706673582212202f58c288082fb6fbc7bb1fe18ea9efbaafe0543382917234c5c3492863e7f41b64736f6c63430008100033",
  "immutableReferences": {},
  "source": "// SPDX-License-Identifier: MIT\npragma solidity ^0.8.0;\n\nimport { IERC20 } from \"@openzeppelin/contracts/token/ERC20/IERC20.sol\";\nimport {IERC20Burnable}  from './IERC20Burnable.sol';\n\n\n\ncontract Bridge {\n\n    mapping(address => mapping(address=> bool)) private tokensmap;\n    address gateway;\n\n\n    // Source chain events\n    event TokensLocked(address indexed makerContract, address indexed takerContract, address requester, uint256 amount, uint timestamp);\n    event TokensUnlocked(address indexed makerContract,address indexed takerContract, address requester, uint256 amount, uint timestamp);\n    \n    event TokensMapped(address indexed makerContract, address indexed takerContract);\n   \n    // Destination chain event\n    event TokensBridged(address indexed makerContract,address indexed takerContract, address requester, uint256 amount, uint timestamp);\n    event TokensReturned(address indexed makerContract,address indexed takerContract, address requester, uint256 amount, uint timestamp);\n    \n    constructor(address _gateway) {\n        gateway = _gateway;\n    }\n\n\n    // Source Chain Methods\n    // MakerContract = source chain contract \n    // TakerContract = dest chain contract\n     function lockTokens (address _makerContract, address _takerContract, address _requester, uint256 _bridgedAmount) onlyGateway external {\n        require(_bridgedAmount > 1, \"please select more than 1 AMT\");\n        require(tokensmap[_makerContract][_takerContract] == true, \"tokens are  not mapped\");\n\n        IERC20 mainToken = IERC20(_makerContract);\n        mainToken.transferFrom(_requester, address(this), _bridgedAmount);\n        emit TokensLocked(_makerContract, _takerContract, _requester,  _bridgedAmount,block.timestamp);\n    }\n\n    function unlockTokens(address _makerContract, address _takerContract, address _requester, uint256 _bridgedAmount) onlyGateway external {\n         IERC20 mainToken = IERC20(_makerContract);\n         require(mainToken.balanceOf(address(this)) >= _bridgedAmount, \"unable to transfer; due to insuffient funds\");\n\n        mainToken.transfer(_requester, _bridgedAmount);\n        emit TokensUnlocked(_makerContract, _takerContract, _requester, _bridgedAmount, block.timestamp);\n    }\n\n\n    // Destination Chain Methods\n    //Note: source chain takerContract here is makerContract\n    function mint(address _makerContract, address _takerContract, address _requester, uint256 _bridgedAmount)  onlyGateway external {\n\n        IERC20Burnable  mainToken = IERC20Burnable(_makerContract);\n        mainToken.mint(_requester, _bridgedAmount);\n        emit TokensBridged(_makerContract, _takerContract, _requester, _bridgedAmount, block.timestamp);\n    }\n\n     function burn(address _makerContract, address _takerContract, address _requester, uint256 _bridgedAmount) onlyGateway external {\n         require(tokensmap[_makerContract][_takerContract] == true, \"tokens are  not mapped\");\n\n        IERC20Burnable  mainToken = IERC20Burnable(_makerContract);\n        mainToken.burnFrom(_requester, _bridgedAmount);\n        emit TokensReturned(_makerContract, _takerContract, _requester, _bridgedAmount, block.timestamp);\n    }\n\n    \n    // Make sure to add source chain first and then destination chain \n    function addTokenMap(address _makerContract, address _takerContract) onlyGateway external {\n        require(tokensmap[_makerContract][_takerContract] == false, \"Already tokens are mapped\");\n        tokensmap[_makerContract][_takerContract] = true;\n        emit TokensMapped( _makerContract, _takerContract);\n    }\n\n\n    modifier onlyGateway {\n      require(msg.sender == gateway, \"only gateway can execute this function\");\n      _;\n}\n    \n\n}\n",
  "sourcePath": "/Users/sai/go/src/github.com/saiSunkari19/token-bridge/contracts/Bridge.sol",
  "compiler": {
    "name": "solc",
    "version": "0.8.16+commit.07a7930e.Emscripten.clang"
  },
  "schemaVersion": "3.4.8",
  "updatedAt": "2022-08-10T16:45:50.711Z",
  "networkType": "ethereum",
  "devdoc": {
    "kind": "dev",
    "methods": {},
    "version": 1
  },
  "userdoc": {
    "kind": "user",
    "methods": {},
    "version": 1
  }
}