{
  "contractName": "SampleToken",
  "abi": [
    {
      "inputs": [
        {
          "internalType": "uint256",
          "name": "_initialSupply",
          "type": "uint256"
        },
        {
          "internalType": "address",
          "name": "_gateway",
          "type": "address"
        }
      ],
      "stateMutability": "nonpayable",
      "type": "constructor"
    },
    {
      "anonymous": false,
      "inputs": [
        {
          "indexed": true,
          "internalType": "address",
          "name": "owner",
          "type": "address"
        },
        {
          "indexed": true,
          "internalType": "address",
          "name": "spender",
          "type": "address"
        },
        {
          "indexed": false,
          "internalType": "uint256",
          "name": "value",
          "type": "uint256"
        }
      ],
      "name": "Approval",
      "type": "event"
    },
    {
      "anonymous": false,
      "inputs": [
        {
          "indexed": true,
          "internalType": "address",
          "name": "from",
          "type": "address"
        },
        {
          "indexed": true,
          "internalType": "address",
          "name": "to",
          "type": "address"
        },
        {
          "indexed": false,
          "internalType": "uint256",
          "name": "value",
          "type": "uint256"
        }
      ],
      "name": "Transfer",
      "type": "event"
    },
    {
      "inputs": [
        {
          "internalType": "address",
          "name": "owner",
          "type": "address"
        },
        {
          "internalType": "address",
          "name": "spender",
          "type": "address"
        }
      ],
      "name": "allowance",
      "outputs": [
        {
          "internalType": "uint256",
          "name": "",
          "type": "uint256"
        }
      ],
      "stateMutability": "view",
      "type": "function",
      "constant": true
    },
    {
      "inputs": [
        {
          "internalType": "address",
          "name": "spender",
          "type": "address"
        },
        {
          "internalType": "uint256",
          "name": "amount",
          "type": "uint256"
        }
      ],
      "name": "approve",
      "outputs": [
        {
          "internalType": "bool",
          "name": "",
          "type": "bool"
        }
      ],
      "stateMutability": "nonpayable",
      "type": "function"
    },
    {
      "inputs": [
        {
          "internalType": "address",
          "name": "account",
          "type": "address"
        }
      ],
      "name": "balanceOf",
      "outputs": [
        {
          "internalType": "uint256",
          "name": "",
          "type": "uint256"
        }
      ],
      "stateMutability": "view",
      "type": "function",
      "constant": true
    },
    {
      "inputs": [],
      "name": "decimals",
      "outputs": [
        {
          "internalType": "uint8",
          "name": "",
          "type": "uint8"
        }
      ],
      "stateMutability": "view",
      "type": "function",
      "constant": true
    },
    {
      "inputs": [
        {
          "internalType": "address",
          "name": "spender",
          "type": "address"
        },
        {
          "internalType": "uint256",
          "name": "subtractedValue",
          "type": "uint256"
        }
      ],
      "name": "decreaseAllowance",
      "outputs": [
        {
          "internalType": "bool",
          "name": "",
          "type": "bool"
        }
      ],
      "stateMutability": "nonpayable",
      "type": "function"
    },
    {
      "inputs": [
        {
          "internalType": "address",
          "name": "spender",
          "type": "address"
        },
        {
          "internalType": "uint256",
          "name": "addedValue",
          "type": "uint256"
        }
      ],
      "name": "increaseAllowance",
      "outputs": [
        {
          "internalType": "bool",
          "name": "",
          "type": "bool"
        }
      ],
      "stateMutability": "nonpayable",
      "type": "function"
    },
    {
      "inputs": [],
      "name": "name",
      "outputs": [
        {
          "internalType": "string",
          "name": "",
          "type": "string"
        }
      ],
      "stateMutability": "view",
      "type": "function",
      "constant": true
    },
    {
      "inputs": [],
      "name": "symbol",
      "outputs": [
        {
          "internalType": "string",
          "name": "",
          "type": "string"
        }
      ],
      "stateMutability": "view",
      "type": "function",
      "constant": true
    },
    {
      "inputs": [],
      "name": "totalSupply",
      "outputs": [
        {
          "internalType": "uint256",
          "name": "",
          "type": "uint256"
        }
      ],
      "stateMutability": "view",
      "type": "function",
      "constant": true
    },
    {
      "inputs": [
        {
          "internalType": "address",
          "name": "to",
          "type": "address"
        },
        {
          "internalType": "uint256",
          "name": "amount",
          "type": "uint256"
        }
      ],
      "name": "transfer",
      "outputs": [
        {
          "internalType": "bool",
          "name": "",
          "type": "bool"
        }
      ],
      "stateMutability": "nonpayable",
      "type": "function"
    },
    {
      "inputs": [
        {
          "internalType": "address",
          "name": "from",
          "type": "address"
        },
        {
          "internalType": "address",
          "name": "to",
          "type": "address"
        },
        {
          "internalType": "uint256",
          "name": "amount",
          "type": "uint256"
        }
      ],
      "name": "transferFrom",
      "outputs": [
        {
          "internalType": "bool",
          "name": "",
          "type": "bool"
        }
      ],
      "stateMutability": "nonpayable",
      "type": "function"
    },
    {
      "inputs": [
        {
          "internalType": "address",
          "name": "_recipient",
          "type": "address"
        },
        {
          "internalType": "uint256",
          "name": "_amount",
          "type": "uint256"
        }
      ],
      "name": "mint",
      "outputs": [],
      "stateMutability": "nonpayable",
      "type": "function"
    },
    {
      "inputs": [
        {
          "internalType": "uint256",
          "name": "_amount",
          "type": "uint256"
        }
      ],
      "name": "burn",
      "outputs": [],
      "stateMutability": "nonpayable",
      "type": "function"
    },
    {
      "inputs": [
        {
          "internalType": "address",
          "name": "_requester",
          "type": "address"
        },
        {
          "internalType": "uint256",
          "name": "_amount",
          "type": "uint256"
        }
      ],
      "name": "burnFrom",
      "outputs": [],
      "stateMutability": "nonpayable",
      "type": "function"
    }
  ],
  "bytecode": "0x60806040523480156200001157600080fd5b50604051620022a5380380620022a583398181016040528101906200003791906200034b565b6040518060400160405280600b81526020017f53616d706c65546f6b656e0000000000000000000000000000000000000000008152506040518060400160405280600281526020017f53430000000000000000000000000000000000000000000000000000000000008152508160039081620000b4919062000602565b508060049081620000c6919062000602565b50505080600560006101000a81548173ffffffffffffffffffffffffffffffffffffffff021916908373ffffffffffffffffffffffffffffffffffffffff1602179055506200011c33836200012460201b60201c565b505062000804565b600073ffffffffffffffffffffffffffffffffffffffff168273ffffffffffffffffffffffffffffffffffffffff160362000196576040517f08c379a00000000000000000000000000000000000000000000000000000000081526004016200018d906200074a565b60405180910390fd5b620001aa600083836200029c60201b60201c565b8060026000828254620001be91906200079b565b92505081905550806000808473ffffffffffffffffffffffffffffffffffffffff1673ffffffffffffffffffffffffffffffffffffffff16815260200190815260200160002060008282546200021591906200079b565b925050819055508173ffffffffffffffffffffffffffffffffffffffff16600073ffffffffffffffffffffffffffffffffffffffff167fddf252ad1be2c89b69c2b068fc378daa952ba7f163c4a11628f55a4df523b3ef836040516200027c9190620007e7565b60405180910390a36200029860008383620002a160201b60201c565b5050565b505050565b505050565b600080fd5b6000819050919050565b620002c081620002ab565b8114620002cc57600080fd5b50565b600081519050620002e081620002b5565b92915050565b600073ffffffffffffffffffffffffffffffffffffffff82169050919050565b60006200031382620002e6565b9050919050565b620003258162000306565b81146200033157600080fd5b50565b60008151905062000345816200031a565b92915050565b60008060408385031215620003655762000364620002a6565b5b60006200037585828601620002cf565b9250506020620003888582860162000334565b9150509250929050565b600081519050919050565b7f4e487b7100000000000000000000000000000000000000000000000000000000600052604160045260246000fd5b7f4e487b7100000000000000000000000000000000000000000000000000000000600052602260045260246000fd5b600060028204905060018216806200041457607f821691505b6020821081036200042a5762000429620003cc565b5b50919050565b60008190508160005260206000209050919050565b60006020601f8301049050919050565b600082821b905092915050565b600060088302620004947fffffffffffffffffffffffffffffffffffffffffffffffffffffffffffffffff8262000455565b620004a0868362000455565b95508019841693508086168417925050509392505050565b6000819050919050565b6000620004e3620004dd620004d784620002ab565b620004b8565b620002ab565b9050919050565b6000819050919050565b620004ff83620004c2565b620005176200050e82620004ea565b84845462000462565b825550505050565b600090565b6200052e6200051f565b6200053b818484620004f4565b505050565b5b8181101562000563576200055760008262000524565b60018101905062000541565b5050565b601f821115620005b2576200057c8162000430565b620005878462000445565b8101602085101562000597578190505b620005af620005a68562000445565b83018262000540565b50505b505050565b600082821c905092915050565b6000620005d760001984600802620005b7565b1980831691505092915050565b6000620005f28383620005c4565b9150826002028217905092915050565b6200060d8262000392565b67ffffffffffffffff8111156200062957620006286200039d565b5b620006358254620003fb565b6200064282828562000567565b600060209050601f8311600181146200067a576000841562000665578287015190505b620006718582620005e4565b865550620006e1565b601f1984166200068a8662000430565b60005b82811015620006b4578489015182556001820191506020850194506020810190506200068d565b86831015620006d45784890151620006d0601f891682620005c4565b8355505b6001600288020188555050505b505050505050565b600082825260208201905092915050565b7f45524332303a206d696e7420746f20746865207a65726f206164647265737300600082015250565b600062000732601f83620006e9565b91506200073f82620006fa565b602082019050919050565b60006020820190508181036000830152620007658162000723565b9050919050565b7f4e487b7100000000000000000000000000000000000000000000000000000000600052601160045260246000fd5b6000620007a882620002ab565b9150620007b583620002ab565b9250828201905080821115620007d057620007cf6200076c565b5b92915050565b620007e181620002ab565b82525050565b6000602082019050620007fe6000830184620007d6565b92915050565b611a9180620008146000396000f3fe608060405234801561001057600080fd5b50600436106100ea5760003560e01c806342966c681161008c57806395d89b411161006657806395d89b411461025d578063a457c2d71461027b578063a9059cbb146102ab578063dd62ed3e146102db576100ea565b806342966c68146101f557806370a082311461021157806379cc679014610241576100ea565b806323b872dd116100c857806323b872dd1461015b578063313ce5671461018b57806339509351146101a957806340c10f19146101d9576100ea565b806306fdde03146100ef578063095ea7b31461010d57806318160ddd1461013d575b600080fd5b6100f761030b565b60405161010491906110eb565b60405180910390f35b610127600480360381019061012291906111a6565b61039d565b6040516101349190611201565b60405180910390f35b6101456103c0565b604051610152919061122b565b60405180910390f35b61017560048036038101906101709190611246565b6103ca565b6040516101829190611201565b60405180910390f35b6101936103f9565b6040516101a091906112b5565b60405180910390f35b6101c360048036038101906101be91906111a6565b610402565b6040516101d09190611201565b60405180910390f35b6101f360048036038101906101ee91906111a6565b610439565b005b61020f600480360381019061020a91906112d0565b6104d7565b005b61022b600480360381019061022691906112fd565b610573565b604051610238919061122b565b60405180910390f35b61025b600480360381019061025691906111a6565b6105bb565b005b610265610659565b60405161027291906110eb565b60405180910390f35b610295600480360381019061029091906111a6565b6106eb565b6040516102a29190611201565b60405180910390f35b6102c560048036038101906102c091906111a6565b610762565b6040516102d29190611201565b60405180910390f35b6102f560048036038101906102f0919061132a565b610785565b604051610302919061122b565b60405180910390f35b60606003805461031a90611399565b80601f016020809104026020016040519081016040528092919081815260200182805461034690611399565b80156103935780601f1061036857610100808354040283529160200191610393565b820191906000526020600020905b81548152906001019060200180831161037657829003601f168201915b5050505050905090565b6000806103a861080c565b90506103b5818585610814565b600191505092915050565b6000600254905090565b6000806103d561080c565b90506103e28582856109dd565b6103ed858585610a69565b60019150509392505050565b60006012905090565b60008061040d61080c565b905061042e81858561041f8589610785565b61042991906113f9565b610814565b600191505092915050565b600560009054906101000a900473ffffffffffffffffffffffffffffffffffffffff1673ffffffffffffffffffffffffffffffffffffffff163373ffffffffffffffffffffffffffffffffffffffff16146104c9576040517f08c379a00000000000000000000000000000000000000000000000000000000081526004016104c09061149f565b60405180910390fd5b6104d38282610ce8565b5050565b600560009054906101000a900473ffffffffffffffffffffffffffffffffffffffff1673ffffffffffffffffffffffffffffffffffffffff163373ffffffffffffffffffffffffffffffffffffffff1614610567576040517f08c379a000000000000000000000000000000000000000000000000000000000815260040161055e9061149f565b60405180910390fd5b61057081610e47565b50565b60008060008373ffffffffffffffffffffffffffffffffffffffff1673ffffffffffffffffffffffffffffffffffffffff168152602001908152602001600020549050919050565b600560009054906101000a900473ffffffffffffffffffffffffffffffffffffffff1673ffffffffffffffffffffffffffffffffffffffff163373ffffffffffffffffffffffffffffffffffffffff161461064b576040517f08c379a00000000000000000000000000000000000000000000000000000000081526004016106429061149f565b60405180910390fd5b6106558282610e5b565b5050565b60606004805461066890611399565b80601f016020809104026020016040519081016040528092919081815260200182805461069490611399565b80156106e15780601f106106b6576101008083540402835291602001916106e1565b820191906000526020600020905b8154815290600101906020018083116106c457829003601f168201915b5050505050905090565b6000806106f661080c565b905060006107048286610785565b905083811015610749576040517f08c379a000000000000000000000000000000000000000000000000000000000815260040161074090611531565b60405180910390fd5b6107568286868403610814565b60019250505092915050565b60008061076d61080c565b905061077a818585610a69565b600191505092915050565b6000600160008473ffffffffffffffffffffffffffffffffffffffff1673ffffffffffffffffffffffffffffffffffffffff16815260200190815260200160002060008373ffffffffffffffffffffffffffffffffffffffff1673ffffffffffffffffffffffffffffffffffffffff16815260200190815260200160002054905092915050565b600033905090565b600073ffffffffffffffffffffffffffffffffffffffff168373ffffffffffffffffffffffffffffffffffffffff1603610883576040517f08c379a000000000000000000000000000000000000000000000000000000000815260040161087a906115c3565b60405180910390fd5b600073ffffffffffffffffffffffffffffffffffffffff168273ffffffffffffffffffffffffffffffffffffffff16036108f2576040517f08c379a00000000000000000000000000000000000000000000000000000000081526004016108e990611655565b60405180910390fd5b80600160008573ffffffffffffffffffffffffffffffffffffffff1673ffffffffffffffffffffffffffffffffffffffff16815260200190815260200160002060008473ffffffffffffffffffffffffffffffffffffffff1673ffffffffffffffffffffffffffffffffffffffff168152602001908152602001600020819055508173ffffffffffffffffffffffffffffffffffffffff168373ffffffffffffffffffffffffffffffffffffffff167f8c5be1e5ebec7d5bd14f71427d1e84f3dd0314c0f7b2291e5b200ac8c7c3b925836040516109d0919061122b565b60405180910390a3505050565b60006109e98484610785565b90507fffffffffffffffffffffffffffffffffffffffffffffffffffffffffffffffff8114610a635781811015610a55576040517f08c379a0000000000000000000000000000000000000000000000000000000008152600401610a4c906116c1565b60405180910390fd5b610a628484848403610814565b5b50505050565b600073ffffffffffffffffffffffffffffffffffffffff168373ffffffffffffffffffffffffffffffffffffffff1603610ad8576040517f08c379a0000000000000000000000000000000000000000000000000000000008152600401610acf90611753565b60405180910390fd5b600073ffffffffffffffffffffffffffffffffffffffff168273ffffffffffffffffffffffffffffffffffffffff1603610b47576040517f08c379a0000000000000000000000000000000000000000000000000000000008152600401610b3e906117e5565b60405180910390fd5b610b52838383610e7b565b60008060008573ffffffffffffffffffffffffffffffffffffffff1673ffffffffffffffffffffffffffffffffffffffff16815260200190815260200160002054905081811015610bd8576040517f08c379a0000000000000000000000000000000000000000000000000000000008152600401610bcf90611877565b60405180910390fd5b8181036000808673ffffffffffffffffffffffffffffffffffffffff1673ffffffffffffffffffffffffffffffffffffffff16815260200190815260200160002081905550816000808573ffffffffffffffffffffffffffffffffffffffff1673ffffffffffffffffffffffffffffffffffffffff1681526020019081526020016000206000828254610c6b91906113f9565b925050819055508273ffffffffffffffffffffffffffffffffffffffff168473ffffffffffffffffffffffffffffffffffffffff167fddf252ad1be2c89b69c2b068fc378daa952ba7f163c4a11628f55a4df523b3ef84604051610ccf919061122b565b60405180910390a3610ce2848484610e80565b50505050565b600073ffffffffffffffffffffffffffffffffffffffff168273ffffffffffffffffffffffffffffffffffffffff1603610d57576040517f08c379a0000000000000000000000000000000000000000000000000000000008152600401610d4e906118e3565b60405180910390fd5b610d6360008383610e7b565b8060026000828254610d7591906113f9565b92505081905550806000808473ffffffffffffffffffffffffffffffffffffffff1673ffffffffffffffffffffffffffffffffffffffff1681526020019081526020016000206000828254610dca91906113f9565b925050819055508173ffffffffffffffffffffffffffffffffffffffff16600073ffffffffffffffffffffffffffffffffffffffff167fddf252ad1be2c89b69c2b068fc378daa952ba7f163c4a11628f55a4df523b3ef83604051610e2f919061122b565b60405180910390a3610e4360008383610e80565b5050565b610e58610e5261080c565b82610e85565b50565b610e6d82610e6761080c565b836109dd565b610e778282610e85565b5050565b505050565b505050565b600073ffffffffffffffffffffffffffffffffffffffff168273ffffffffffffffffffffffffffffffffffffffff1603610ef4576040517f08c379a0000000000000000000000000000000000000000000000000000000008152600401610eeb90611975565b60405180910390fd5b610f0082600083610e7b565b60008060008473ffffffffffffffffffffffffffffffffffffffff1673ffffffffffffffffffffffffffffffffffffffff16815260200190815260200160002054905081811015610f86576040517f08c379a0000000000000000000000000000000000000000000000000000000008152600401610f7d90611a07565b60405180910390fd5b8181036000808573ffffffffffffffffffffffffffffffffffffffff1673ffffffffffffffffffffffffffffffffffffffff168152602001908152602001600020819055508160026000828254610fdd9190611a27565b92505081905550600073ffffffffffffffffffffffffffffffffffffffff168373ffffffffffffffffffffffffffffffffffffffff167fddf252ad1be2c89b69c2b068fc378daa952ba7f163c4a11628f55a4df523b3ef84604051611042919061122b565b60405180910390a361105683600084610e80565b505050565b600081519050919050565b600082825260208201905092915050565b60005b8381101561109557808201518184015260208101905061107a565b60008484015250505050565b6000601f19601f8301169050919050565b60006110bd8261105b565b6110c78185611066565b93506110d7818560208601611077565b6110e0816110a1565b840191505092915050565b6000602082019050818103600083015261110581846110b2565b905092915050565b600080fd5b600073ffffffffffffffffffffffffffffffffffffffff82169050919050565b600061113d82611112565b9050919050565b61114d81611132565b811461115857600080fd5b50565b60008135905061116a81611144565b92915050565b6000819050919050565b61118381611170565b811461118e57600080fd5b50565b6000813590506111a08161117a565b92915050565b600080604083850312156111bd576111bc61110d565b5b60006111cb8582860161115b565b92505060206111dc85828601611191565b9150509250929050565b60008115159050919050565b6111fb816111e6565b82525050565b600060208201905061121660008301846111f2565b92915050565b61122581611170565b82525050565b6000602082019050611240600083018461121c565b92915050565b60008060006060848603121561125f5761125e61110d565b5b600061126d8682870161115b565b935050602061127e8682870161115b565b925050604061128f86828701611191565b9150509250925092565b600060ff82169050919050565b6112af81611299565b82525050565b60006020820190506112ca60008301846112a6565b92915050565b6000602082840312156112e6576112e561110d565b5b60006112f484828501611191565b91505092915050565b6000602082840312156113135761131261110d565b5b60006113218482850161115b565b91505092915050565b600080604083850312156113415761134061110d565b5b600061134f8582860161115b565b92505060206113608582860161115b565b9150509250929050565b7f4e487b7100000000000000000000000000000000000000000000000000000000600052602260045260246000fd5b600060028204905060018216806113b157607f821691505b6020821081036113c4576113c361136a565b5b50919050565b7f4e487b7100000000000000000000000000000000000000000000000000000000600052601160045260246000fd5b600061140482611170565b915061140f83611170565b9250828201905080821115611427576114266113ca565b5b92915050565b7f6f6e6c7920627269646765206861732061636365737320746f2074686973206360008201527f68696c6420746f6b656e2066756e6374696f6e00000000000000000000000000602082015250565b6000611489603383611066565b91506114948261142d565b604082019050919050565b600060208201905081810360008301526114b88161147c565b9050919050565b7f45524332303a2064656372656173656420616c6c6f77616e63652062656c6f7760008201527f207a65726f000000000000000000000000000000000000000000000000000000602082015250565b600061151b602583611066565b9150611526826114bf565b604082019050919050565b6000602082019050818103600083015261154a8161150e565b9050919050565b7f45524332303a20617070726f76652066726f6d20746865207a65726f2061646460008201527f7265737300000000000000000000000000000000000000000000000000000000602082015250565b60006115ad602483611066565b91506115b882611551565b604082019050919050565b600060208201905081810360008301526115dc816115a0565b9050919050565b7f45524332303a20617070726f766520746f20746865207a65726f20616464726560008201527f7373000000000000000000000000000000000000000000000000000000000000602082015250565b600061163f602283611066565b915061164a826115e3565b604082019050919050565b6000602082019050818103600083015261166e81611632565b9050919050565b7f45524332303a20696e73756666696369656e7420616c6c6f77616e6365000000600082015250565b60006116ab601d83611066565b91506116b682611675565b602082019050919050565b600060208201905081810360008301526116da8161169e565b9050919050565b7f45524332303a207472616e736665722066726f6d20746865207a65726f20616460008201527f6472657373000000000000000000000000000000000000000000000000000000602082015250565b600061173d602583611066565b9150611748826116e1565b604082019050919050565b6000602082019050818103600083015261176c81611730565b9050919050565b7f45524332303a207472616e7366657220746f20746865207a65726f206164647260008201527f6573730000000000000000000000000000000000000000000000000000000000602082015250565b60006117cf602383611066565b91506117da82611773565b604082019050919050565b600060208201905081810360008301526117fe816117c2565b9050919050565b7f45524332303a207472616e7366657220616d6f756e742065786365656473206260008201527f616c616e63650000000000000000000000000000000000000000000000000000602082015250565b6000611861602683611066565b915061186c82611805565b604082019050919050565b6000602082019050818103600083015261189081611854565b9050919050565b7f45524332303a206d696e7420746f20746865207a65726f206164647265737300600082015250565b60006118cd601f83611066565b91506118d882611897565b602082019050919050565b600060208201905081810360008301526118fc816118c0565b9050919050565b7f45524332303a206275726e2066726f6d20746865207a65726f2061646472657360008201527f7300000000000000000000000000000000000000000000000000000000000000602082015250565b600061195f602183611066565b915061196a82611903565b604082019050919050565b6000602082019050818103600083015261198e81611952565b9050919050565b7f45524332303a206275726e20616d6f756e7420657863656564732062616c616e60008201527f6365000000000000000000000000000000000000000000000000000000000000602082015250565b60006119f1602283611066565b91506119fc82611995565b604082019050919050565b60006020820190508181036000830152611a20816119e4565b9050919050565b6000611a3282611170565b9150611a3d83611170565b9250828203905081811115611a5557611a546113ca565b5b9291505056fea2646970667358221220b20b2a9786e3a27355880828175903077d43d7d757333ce6e4573175cfd38d5c64736f6c63430008100033",
  "immutableReferences": {},
  "source": "// SPDX-License-Identifier: MIT\npragma solidity ^0.8.0;\n\nimport { ERC20 } from \"@openzeppelin/contracts/token/ERC20/ERC20.sol\";\nimport { ERC20Burnable } from \"@openzeppelin/contracts/token/ERC20/extensions/ERC20Burnable.sol\";\n\n\ncontract SampleToken is ERC20, ERC20Burnable {\n\n    address  gateway;\n\n\n    constructor(uint256 _initialSupply, address _gateway) ERC20(\"SampleToken\", \"SC\") {\n        gateway = _gateway;\n        _mint(msg.sender, _initialSupply);\n    }\n\n\n     function mint( address _recipient, uint256 _amount ) public virtual onlyBridge{\n        _mint(_recipient, _amount);\n    }\n\n     function burn(uint256 _amount) public override(ERC20Burnable)   virtual onlyBridge {\n        super.burn(_amount);\n    }\n\n     function burnFrom(address _requester, uint256 _amount) public override(ERC20Burnable)   virtual onlyBridge {\n        super.burnFrom(_requester, _amount);\n    }\n\n   modifier onlyBridge {\n      require(msg.sender == gateway, \"only bridge has access to this child token function\");\n      _;\n    }\n}",
  "sourcePath": "/Users/sai/go/src/github.com/saiSunkari19/token-bridge/contracts/SampleToken.sol",
  "compiler": {
    "name": "solc",
    "version": "0.8.16+commit.07a7930e.Emscripten.clang"
  },
  "schemaVersion": "3.4.8",
  "updatedAt": "2022-08-10T16:45:50.716Z",
  "networkType": "ethereum",
  "devdoc": {
    "kind": "dev",
    "methods": {
      "allowance(address,address)": {
        "details": "See {IERC20-allowance}."
      },
      "approve(address,uint256)": {
        "details": "See {IERC20-approve}. NOTE: If `amount` is the maximum `uint256`, the allowance is not updated on `transferFrom`. This is semantically equivalent to an infinite approval. Requirements: - `spender` cannot be the zero address."
      },
      "balanceOf(address)": {
        "details": "See {IERC20-balanceOf}."
      },
      "decimals()": {
        "details": "Returns the number of decimals used to get its user representation. For example, if `decimals` equals `2`, a balance of `505` tokens should be displayed to a user as `5.05` (`505 / 10 ** 2`). Tokens usually opt for a value of 18, imitating the relationship between Ether and Wei. This is the value {ERC20} uses, unless this function is overridden; NOTE: This information is only used for _display_ purposes: it in no way affects any of the arithmetic of the contract, including {IERC20-balanceOf} and {IERC20-transfer}."
      },
      "decreaseAllowance(address,uint256)": {
        "details": "Atomically decreases the allowance granted to `spender` by the caller. This is an alternative to {approve} that can be used as a mitigation for problems described in {IERC20-approve}. Emits an {Approval} event indicating the updated allowance. Requirements: - `spender` cannot be the zero address. - `spender` must have allowance for the caller of at least `subtractedValue`."
      },
      "increaseAllowance(address,uint256)": {
        "details": "Atomically increases the allowance granted to `spender` by the caller. This is an alternative to {approve} that can be used as a mitigation for problems described in {IERC20-approve}. Emits an {Approval} event indicating the updated allowance. Requirements: - `spender` cannot be the zero address."
      },
      "name()": {
        "details": "Returns the name of the token."
      },
      "symbol()": {
        "details": "Returns the symbol of the token, usually a shorter version of the name."
      },
      "totalSupply()": {
        "details": "See {IERC20-totalSupply}."
      },
      "transfer(address,uint256)": {
        "details": "See {IERC20-transfer}. Requirements: - `to` cannot be the zero address. - the caller must have a balance of at least `amount`."
      },
      "transferFrom(address,address,uint256)": {
        "details": "See {IERC20-transferFrom}. Emits an {Approval} event indicating the updated allowance. This is not required by the EIP. See the note at the beginning of {ERC20}. NOTE: Does not update the allowance if the current allowance is the maximum `uint256`. Requirements: - `from` and `to` cannot be the zero address. - `from` must have a balance of at least `amount`. - the caller must have allowance for ``from``'s tokens of at least `amount`."
      }
    },
    "version": 1
  },
  "userdoc": {
    "kind": "user",
    "methods": {},
    "version": 1
  }
}